:100000000C9446000C9465000C9465000C946500FB
:100010000C9465000C9465000C9465000C946500CC
:100020000C9465000C9465000C9465000C946500BC
:100030000C9465000C9465000C9465000C946500AC
:100040000C9465000C9465000C9465000C9465009C
:100050000C9465000C9465000C9465000C9465008C
:100060000C9465000C9465000C9465000C9465007C
:100070000C9465000C9465000C9465000C9465006C
:100080000C9465000C9465000C94650011241FBE4F
:10009000CFEFD0E1DEBFCDBF11E0A0E0B1E0ECE2F8
:1000A000F2E100E00BBF02C007900D92A03AB10749
:1000B000D9F711E0A0EAB1E001C01D92A63DB10759
:1000C000E1F70E94F4030C9414090C940000E199E8
:1000D000FECF9FBB8EBB6DBBE29AE19A0895E1997A
:1000E000FECF9FBB8EBBE09A8DB308950895AA9A68
:1000F000AA9808951F93182F982F9F609093B2018C
:1001000085B3806F982395BBA89A0E9477001295BB
:10011000107F1093B20185B315BBA89A0E94770097
:100120001F9108951F93A89810E315BB0E947700B4
:1001300015BB0E94770015BB0E94770080E285BB4B
:100140000E9477001F9108951F93182F982F9F608A
:100150009093B20185B3806F982395BBA8980E94B5
:1001600077001295107F1093B20185B38F70182B12
:1001700015BBA8980E9477001F9108951BBA80E4D0
:100180008ABB18BA17BA15BA87EF84BB80EC82BB5A
:1001900088E081BB13B880E382B9109262001092AC
:1001A0006100109265001092640008959B01AC01FB
:1001B00084E0220F331F441F551F8A95D1F760E05A
:1001C00074E284EF90E00E94D708215030403093D1
:1001D000980020939900EAE9F0E0808188618083AB
:1001E000EDE9F0E0808186688083089580919B002E
:1001F00087FD02C080E0089580919C000895982FAB
:1002000080919B0085FFFCCF90939C0008950F93F5
:100210001F93CF93DF938C01C0E0D0E007C0F801BB
:10022000EC0FFD1F80810E947A002196F801019059
:100230000020E9F73197E01BF10BCE17DF0778F3C9
:10024000DF91CF911F910F9108951F93CF93DF936B
:10025000C1E0D0E010E480919B0087FF7FC08091D7
:100260009C00882309F47AC0813709F463C082377F
:1002700030F48336E1F0843609F070C02BC0883743
:1002800031F08A37B9F1843709F068C043C08091F2
:100290009B0087FFFCCF60919C006623C1F3613215
:1002A00019F484E190E00FC084E190E00DC08091EA
:1002B0009B0087FFFCCF60919C006623C1F36132F5
:1002C00031F485E190E060E00E94670047C085E17D
:1002D00090E0FACF80919B0087FFFCCF60919C005B
:1002E0006623C1F3613219F486E190E0ECCF86E138
:1002F00090E0EACF80919B0087FFFCCF60919C004B
:100300006623C1F3613219F487E190E0DCCF87E125
:1003100090E0DACF80919B0087FFFCCF60919C003A
:100320006623C1F3613219F488E190E0CCCF88E113
:1003300090E0CACF8AE090E060E00E94670089E127
:1003400090E060E00E94670080E091E00E94070179
:1003500080E090E0DF91CF911F9108958091A001FE
:100360009091A101892B29F4D093A101C093A00100
:1003700004C01092A1011092A0018091A00190915F
:10038000A101019711F41BBB01C01BBA6AE070E028
:1003900080E090E00E948A085ECF8F929F92BF9289
:1003A000CF92DF92EF92FF920F931F93DF93CF9341
:1003B000CDB7DEB7A8970FB6F894DEBF0FBECDBF9E
:1003C0006B017C0197FF0CC08DE290E00E947A00E7
:1003D000F094E094D094C094C11CD11CE11CF11C99
:1003E000BB244E010894811C911CB3940B2D10E08A
:1003F000000F111F080D191DC701B6012AE030E0DA
:1004000040E050E00E94F908F80171836083C70161
:10041000B6012AE030E040E050E00E94F908C9014E
:10042000DA016C017D011C141D041E041F04ECF292
:100430000CC0EB2DF0E0EE0FFF1FEE0DFF1D8081D5
:10044000805D0E949507BA9404C07E010894E11C67
:10045000F11CBB2071F7A8960FB6F894DEBF0FBE53
:10046000CDBFCF91DF911F910F91FF90EF90DF9063
:10047000CF90BF909F908F900895CF92DF92EF9290
:10048000FF920F931F93CF93DF93EA01AC01CB014F
:10049000DA017C018D0138E1C32ED12C9BC0C899B3
:1004A0001EC081E00E9475078CE00E94750782E003
:1004B00091E00E94B607E199FECFDFBACEBAE09A8A
:1004C0008DB38093AE011092AF01E199FECFDFBAF8
:1004D000CEBAE09A6DB389E190E00E946700809106
:1004E000AE019091AF01892B51F581E00E94750713
:1004F0008CE00E94750786E091E00E94B60780ECD0
:100500000E9475070E944A088091B0019091B10144
:10051000BE01681B790B80E090E00E94CD016DE583
:1005200070E080E090E00E948A088091B001909194
:10053000B10101969093B1018093B00127C081E091
:100540000E9475078CE00E94750785E191E00E948A
:10055000B60780EC0E9475078091B0019091B101BF
:10056000BE01681B790B80E090E00E94CD01809174
:10057000B0019091B10101969093B1018093B001C7
:100580006DE570E080E090E00E948A086091AE0125
:100590007091AF011616170654F4615070407093B5
:1005A000AF016093AE0189E190E00E946700809105
:1005B000A5019091A601A091A701B091A801019673
:1005C000A11DB11D8093A5019093A601A093A70141
:1005D000B093A8010894E108F108010911098FEF0F
:1005E000E8168FEFF8068FEF08078FEF180709F06E
:1005F00056CFDF91CF911F910F91FF90EF90DF9039
:10060000CF900895AF92BF92CF92DF92EF92FF9278
:100610000F931F93CF93DF93AC01CB01DA017C01E1
:100620008D0158E1C52ED12CCCE3D0E04BE3A42EB4
:10063000B12CC0C0C89914C0E199FECFDFBACEBAC0
:10064000E09A8DB38093AE011092AF01E199FECF95
:10065000DFBACEBAE09A6DB389E190E00E946700FC
:100660008091AE019091AF01892B69F481E00E94E5
:1006700075078CE00E94750786E091E00E94B6073E
:100680000E944A080AC081E00E9475078CE00E941F
:10069000750785E191E00E94B60780EC0E9475071E
:1006A0008091B5019091B601892B09F041C08091EC
:1006B000B3019091B401009791F58091BF019091A1
:1006C000C001009769F41092B6011092B501109222
:1006D000B4011092B3011092C0011092BF0128C062
:1006E000B092B401A092B301D093B601C093B5010A
:1006F00001979093C0018093BF016091AE0170910A
:10070000AF0116161706A4F4615070407093AF0144
:100710006093AE0189E190E00E94670009C00197F3
:100720009093B4018093B301D093B601C093B50107
:100730008091B5019091B60101979093B601809395
:10074000B5016091BF017091C00180E090E00E940E
:10075000CD0181E291E00E94B6076091B3017091F2
:10076000B40180E090E00E94CD0181E291E00E941E
:10077000B6076091B5017091B60180E090E00E94EB
:10078000CD016BE570E080E090E00E948A088091E6
:10079000A5019091A601A091A701B091A801019691
:1007A000A11DB11D8093A5019093A601A093A7015F
:1007B000B093A8010894E108F108010911098FEF2D
:1007C000E8168FEFF8068FEF08078FEF180709F08C
:1007D00031CFDF91CF911F910F91FF90EF90DF907C
:1007E000CF90BF90AF9008954F925F926F927F929B
:1007F0008F929F92AF92BF92CF92DF92EF92FF9231
:100800000F931F93CF93DF931092A5011092A6012F
:100810001092A7011092A8011092C0011092BF017E
:100820001092B4011092B3011092B6011092B5016A
:100830001092AF011092AE011092B1011092B0016E
:100840000E94FC0760E875E280E090E00E94D6001C
:100850000E94D2078CE00E9475076AE070E080E099
:1008600090E00E948A0881E00E9475078CE00E9457
:10087000750783E291E00E94B6076CE271E080E0C8
:1008800090E00E948A08C899F2C081E00E94750732
:100890008CE00E94750764E670E080E090E00E94C2
:1008A0008A0883E391E00E94B60762E370E080E08B
:1008B00090E00E948A0810E4512EB4E16B2E712C56
:1008C000A5E18A2E912CF6E1AF2EB12CE7E1CE2ED8
:1008D000D12CC8E1D0E081E00E9475078CE00E9435
:1008E000750764E670E080E090E00E948A0882E488
:1008F00091E00E94B6070E94250181E00E947507E1
:100900008CE00E94750764E670E080E090E00E9451
:100910008A088DE491E00E94B60764E670E080E00A
:1009200090E00E948A085BBA81E00E9475078CE023
:100930000E94750764E670E080E090E00E948A08FB
:1009400085E591E00E94B60766E970E080E090E0FE
:100950000E948A08E199FECF7FBA6EBAE09AEDB2A2
:1009600081E00E9475078CE00E94750783E691E0A4
:100970000E94B607FF240027F7FC0095102FC8013E
:10098000B7010E94CD01E199FECF9FBA8EBAE09ADD
:10099000EDB286E691E00E94B607FF240027F7FC3F
:1009A0000095102FC801B7010E94CD01E199FECF3B
:1009B000BFBAAEBAE09AEDB280EC0E9475078CE641
:1009C00091E00E94B607FF240027F7FC0095102F46
:1009D000C801B7010E94CD01E199FECFDFBACEBABE
:1009E000E09AEDB282E791E00E94B607FF2400276B
:1009F000F7FC0095102FC801B7010E94CD0186E7D2
:100A000091E00E94B607E199FECFDFBBCEBBE09A32
:100A10006DB370E0882777FD8095982F0E94CD01F7
:100A200064EF71E080E090E00E948A0881E00E941B
:100A300075078CE00E94750788E791E00E94B60771
:100A40001092AF011092AE0164EF71E080E090E08F
:100A50000E948A08C89B3FCF81E00E9475078CE006
:100A60000E94750789E891E00E94B607F3CFE199EB
:100A7000FECF8AE090E09FBB8EBBE09A8DB38823C7
:100A800021F01BBAC899FDCF16CFE199FECF89E1BD
:100A900090E09FBB8EBBE09A8DB38093AE01109225
:100AA000AF0181E00E9475078CE00E94750764E643
:100AB00070E080E090E00E948A0885E591E00E9465
:100AC000B60766E970E080E090E00E948A08E1994C
:100AD000FECF84E190E09FBB8EBBE09A7DB281E0C7
:100AE0000E9475078CE00E94750783E691E00E94E2
:100AF000B607E72CFF24B701882777FD8095982F4C
:100B00000E94CD01E199FECF85E190E09FBB8EBBB5
:100B1000E09A4DB286E691E00E94B607A42CBB2471
:100B2000B501882777FD8095982F0E94CD01E19926
:100B3000FECF86E190E09FBB8EBBE09A0DB380ECC8
:100B40000E9475078CE691E00E94B607C02EDD2456
:100B5000B601882777FD8095982F0E94CD01E199F5
:100B6000FECF87E190E09FBB8EBBE09A1DB383E987
:100B700091E00E94B607812E9924B401882777FD61
:100B80008095982F0E94CD0186E791E00E94B607DC
:100B9000CCE3D0E0E199FCCF88E190E09FBB8EBB35
:100BA000E09A6DB370E0882777FD8095982F0E94BA
:100BB000CD0160E971E080E090E00E948A0881E068
:100BC0000E9475078CE00E947507C99942C081E0B8
:100BD0000E9475078CE00E94750789E991E00E94E8
:100BE000B60766E970E080E090E00E948A0880E441
:100BF0008BBB672D70E080E090E0A4010E943D0275
:100C0000612E7724A02EBB24CC24DD2470E4572E43
:100C1000E42CFF2400E010E014C01BBAC601B501AB
:100C2000A4010E943D028091B0019091B10186150E
:100C3000970508F06FC05BBAC801B701A4010E9414
:100C40003D028091B0019091B1018615970528F37E
:100C500061C01093BF011092C00180E48BBBEC9E79
:100C6000B001ED9E700DFC9E700D1124882777FD5C
:100C70008095982F0E94020380E19EE09C01829E55
:100C8000C001839E900D929E900D11247C0100273F
:100C9000F7FC0095102FCC9EC001CD9E900DDC9EE0
:100CA000900D11243C01882477FC8094982CAC9EF4
:100CB000C001AD9E900DBC9E900D11245C01CC2412
:100CC000B7FCC094DC2C60E4562E17C01BBAC401DC
:100CD000B3010E9402038091A5019091A601A09109
:100CE000A701B091A8018E159F05A007B10790F448
:100CF0005BBAC601B5010E9402038091A5019091E3
:100D0000A601A091A701B091A8018E159F05A0078B
:100D1000B107E0F21BBA81E00E94750780E090E025
:100D2000DF91CF911F910F91FF90EF90DF90CF90C7
:100D3000BF90AF909F908F907F906F905F904F90FB
:100D400008956F927F928F929F92AF92BF92CF92AF
:100D5000DF92EF92FF920F931F93FC01CB01DF0113
:100D60005C016D013A01882477FC8094982C9CC02A
:100D70006DE570E080E090E00E948A0881E00E94CA
:100D800075078CE00E94750785E191E00E94B60727
:100D90008091A5019091A601A091A701B091A80111
:100DA000A4019301281B390B4A0B5B0BCA01B90143
:100DB0002093B7013093B8014093B9015093BA0121
:100DC00020E13EE040E050E00E94D7082093BB01C4
:100DD0003093BC014093BD015093BE0180EC0E9452
:100DE00075076091B7017091B8018091B901909138
:100DF000BA0120E13EE040E050E00E94D708CA017D
:100E0000B9010E94CD0181E291E00E94B607609194
:100E1000B7017091B8018091B9019091BA012CE3AA
:100E200030E040E050E00E94D70879018A016091EB
:100E3000BB017091BC018091BD019091BE012CE37A
:100E400030E040E050E00E94B808E61AF70A080BCC
:100E5000190BC801B7010E94CD0181E291E00E9407
:100E6000B6076091B7017091B8018091B901909176
:100E7000BA012CE330E040E050E00E94D7080E9425
:100E8000CD018091A5019091A601A091A701B091FB
:100E9000A8010196A11DB11D8093A5019093A60103
:100EA000A093A701B093A8010894A108B108C108B4
:100EB000D108A114B104C104D10409F059CF1F9184
:100EC0000F91FF90EF90DF90CF90BF90AF909F90E9
:100ED0008F907F906F900895AA9A65E070E080E00F
:100EE00090E00E945B08AA9808951F93182F61E074
:100EF00070E080E090E00E948A08912F9F609093BC
:100F0000B20185B3806F982395BBA8980E946C07A7
:100F10001295107F1093B20185B38F70182B15BBFB
:100F2000A8980E946C071F9108951F93182F61E0E5
:100F300070E080E090E00E948A08912F907F9C6092
:100F40009093B20185B3806F982395BBA89A0E94B5
:100F50006C071295107F1093B20185B38C70812BB2
:100F600085BBA89A0E946C071F9108950F931F9349
:100F7000CF93DF938C01C0E0D0E009C00E949507B9
:100F8000CF30D10519F480EC0E9475072196F80145
:100F9000EC0FFD1F8081882389F7DF91CF911F918E
:100FA0000F9108951F93A8986AE070E080E090E0A8
:100FB0000E948A0810E315BB0E946C076AE070E08B
:100FC00080E090E00E948A0815BB0E946C076AE0EE
:100FD00070E080E090E00E948A0815BB0E946C07D8
:100FE0006AE070E080E090E00E948A0880E285BBC1
:100FF0000E946C071F9108951BBA80E48ABB18BA3F
:1010000017BA15BA87EF84BB12BA88E081BB13B850
:1010100080E382B910926200109261001092650024
:101020001092640008951FBC87E08EBD1DBC1CBCDF
:101030001BBC1ABC19BC18BC109279001092780025
:1010400085BD14BC13BC089510929B0088E1809369
:101050009A0086E080939D001092980087E6809326
:1010600099000895982F80919B0085FFFCCF909365
:101070009C00089580919B0087FFFCCF80919C008D
:10108000089580919B0087FD02C080E008958091C3
:101090009C0008951C981D9A6DE770E080E090E038
:1010A0000E945B081D981C9A6DE770E080E090E05C
:1010B0000E945B08089522E0660F771F881F991F22
:1010C0002A95D1F76093D2017093D3018093D40114
:1010D0009093D5018091D2019091D301A091D40138
:1010E000B091D5010197A109B1098093D2019093E4
:1010F000D301A093D401B093D5018091D2019091F6
:10110000D301A091D401B091D5010097A105B105FB
:1011100009F7089520EA3FE040E050E00E94B80857
:101120006093D2017093D3018093D4019093D50141
:101130008091D2019091D301A091D401B091D501B9
:101140000197A109B1098093D2019093D301A09393
:10115000D401B093D5018091D2019091D301A09197
:10116000D401B091D5010097A105B10509F7089503
:10117000629FD001739FF001829FE00DF11D649F7B
:10118000E00DF11D929FF00D839FF00D749FF00D07
:10119000659FF00D9927729FB00DE11DF91F639FA8
:1011A000B00DE11DF91FBD01CF0111240895A1E289
:1011B0001A2EAA1BBB1BFD010DC0AA1FBB1FEE1FD1
:1011C000FF1FA217B307E407F50720F0A21BB30B1C
:1011D000E40BF50B661F771F881F991F1A9469F798
:1011E00060957095809590959B01AC01BD01CF01F4
:1011F000089597FB092E05260ED057FD04D0D7DFA2
:101200000AD0001C38F450954095309521953F4FF9
:101210004F4F5F4F0895F6F79095809570956195C3
:0C1220007F4F8F4F9F4F0895F894FFCF31
:10122C0051004E6577006672616772616E6365206E
:10123C006F7665720054696D65204C6566743A3A38
:10124C00003A002A2A2A2A57656C636F6D652A2A90
:10125C002A2A0050726F6772616D6D696E672E2E4F
:10126C002E0057616974696E672E2E2E00446F6EC6
:10127C00652E2E2E002D446174612056616C7565AF
:10128C00732D00583D0020544F4E3D00544F4646A0
:10129C003D00546F74002C005072657373204234FF
:1012AC0020666F72206E657700436F6D706C65748D
:1012BC0065210020546F743D005465737400010067
:00000001FF
